:020000040800F2
:10000000180D0020C9010008C90C0008D10B000818
:10001000C50C0008AB060008571A000800000000D5
:100020000000000000000000000000004513000870
:100030005108000800000000F511000855150008DF
:10004000A11A0008E3010008E3010008E301000829
:10005000E3010008E3010008E3010008E3010008F0
:10006000E3010008E3010008E3010008E3010008E0
:10007000E3010008E3010008E3010008E3010008D0
:10008000E3010008E3010008E3010008E3010008C0
:10009000E3010008E3010008E3010008E3010008B0
:1000A000E3010008E3010008E3010008E3010008A0
:1000B000B9150008CD150008E3010008E3010008A8
:1000C000E3010008E3010008E3010008E301000880
:1000D000E30100080D17000815180008E3010008E7
:1000E00055080008E3010008E301000800F002F8E9
:1000F00000F05AF80AA090E8000C82448344AAF168
:100100000107DA4501D100F04FF8AFF2090EBAE865
:100110000F0013F0010F18BFFB1A43F0010318473B
:100120000C2900002C2900000A444FF0000C10F8A4
:10013000013B13F0070408BF10F8014B1D1108BF65
:1001400010F8015B641E05D010F8016B641E01F805
:10015000016BF9D113F0080F1EBF10F8014BAD1C55
:100160000C1B09D16D1E58BF01F801CBFAD505E073
:1001700014F8016B01F8016B6D1EF9D59142D6D3CD
:10018000704700000023002400250026103A28BFF5
:1001900078C1FBD8520728BF30C148BF0B607047F9
:1001A0001FB51FBD10B510BD00F0C5F81146FFF713
:1001B000F7FF01F051FD00F0E3F803B4FFF7F2FFA1
:1001C00003BC00F0EBF800000948804709480047ED
:1001D000FEE7FEE7FEE7FEE7FEE7FEE7FEE7FEE7F7
:1001E000FEE7FEE704480549054A064B7047000054
:1001F00059150008ED00000818070020180D002010
:10020000180900201809002040EA010370B59B0777
:100210002ED14FF00136042A2AD308C810C99D1BDD
:100220009D43121F15EAC61517D0D8B2E1B2401A85
:1002300050EA056110D198B2A1B2401A50EA0541C6
:100240000AD123F07F4024F07F41401A50EA052173
:1002500002D1180EA0EB146070BDA342DBD018BA17
:1002600021BA884201D9012070BD4FF0FF3070BD26
:100270000AB9002070BD10F8013B11F8014B63B1C1
:10028000A3420AD1521E08D010F8013B11F8014BCD
:100290001BB1A34201D1521EEDD1181B70BD4FF00E
:1002A00000020429C0F0128010F0030C00F01E8040
:1002B000CCF1040CBCF1020F18BF00F8012BA8BF51
:1002C00020F8022BA1EB0C0100F010B85FEAC17C12
:1002D00024BF00F8012B00F8012B48BF00F8012BC8
:1002E00070477047704770474FF0000200B51346E3
:1002F00094469646203922BFA0E80C50A0E80C5046
:10030000B1F12001BFF4F7AF090728BFA0E80C50F6
:1003100048BF0CC05DF804EB890028BF40F8042BEF
:1003200008BF704748BF20F8022B11F0804F18BF5C
:1003300000F8012B7047754600F02CF8AE4605001A
:100340006946534620F00700854618B020B5FFF7F0
:1003500049FFBDE820404FF000064FF000074FF086
:1003600000084FF0000B21F00701AC46ACE8C009D3
:10037000ACE8C009ACE8C009ACE8C0098D467047DC
:1003800010B50446AFF300802046BDE81040FFF7EB
:1003900014BF000000487047B8060020014918202B
:1003A000ABBEFEE7260002007047000008B5012141
:1003B000042000F04DFF0121082000F049FF00203B
:1003C0008DF80300F020ADF800006946064800F003
:1003D00067FB00208DF803000120ADF8000069469E
:1003E000024800F05DFB08BD00080140000C014020
:1003F00000B591B00121084600F00AFF0121480232
:1004000000F026FF414800F05FF94148069041485E
:100410000790002008900520099000200A90802075
:100420000B9040000C9080000D9020200E90000258
:100430000F900020109006A9344800F0EBF901213C
:10044000324800F034F90020019001208DF80800B6
:100450008DF809004FF460200390002004900520DF
:100460008DF8140001A92A484C3800F07FF84FF4A9
:10047000404000F0C1FE07230122042124484C38EB
:1004800000F09CF807230222052121484C3800F097
:1004900095F80723032206211D484C3800F08EF8FA
:1004A0000723042219461A484C3800F087F807231E
:1004B0000522082116484C3800F080F80121144824
:1004C0004C3800F034F8012111484C3800F024F881
:1004D0000F484C3800F0CEF800BF0D484C3800F003
:1004E0003BF80028F9D10A484C3800F0D3F800BF97
:1004F00007484C3800F026F80028F9D101210448BB
:100500004C3800F0BCF811B000BD000008000240FB
:100510004C240140AC06002021B1826842F0010267
:10052000826003E0826822F001028260704721B19C
:10053000826842F48072826003E0826822F48072F2
:1005400082607047014600208A6802F004020AB106
:10055000012000E000207047014600208A6802F078
:1005600008020AB1012000E00020704730B50246C1
:100570000020002350680F4C20400D790C6844EA9D
:1005800005242043506090680B4C2040D1E9025470
:100590002C434D7944EA450420439060D06A20F40E
:1005A00070000C7C641EE4B2234340EA0350D06226
:1005B00030BD0000FFFEF0FFFDF7F1FFF0B504468F
:1005C0000D4600200021092D11DDE068A5F10A0685
:1005D00006EB4607072606FA07F18843A5F10A0647
:1005E00006EB460603FA06F10843E0600CE02069DA
:1005F00005EB4507072606FA07F1884305EB450694
:1006000003FA06F108432061072A0FDA606B561ED1
:1006100006EB86071F2606FA07F18843561E06EBEF
:10062000860605FA06F10843606322E00D2A0FDA18
:10063000206BD61F06EB86071F2606FA07F18843B4
:10064000D61F06EB860605FA06F10843206310E084
:10065000E06AA2F10D0606EB86071F2606FA07F1EF
:100660008843A2F10D0606EB860605FA06F108435B
:10067000E062F0BD816841F008018160704721B1FE
:10068000826842F4A002826003E0826822F4A00241
:1006900082607047816841F004018160704710B545
:1006A000FFF784FEFFF7A4FE10BD00BFFEE721B1F7
:1006B000026842F00102026004E002684FF6FE7335
:1006C0001A4002607047000001684FF6FE72114048
:1006D00001600021016041608160C1604B49884236
:1006E00008D14A490839496841F00F01474A083A98
:1006F00051608AE045491431884208D1434908399C
:10070000496841F0F001414A083A51607DE03F49B3
:100710002831884208D13D490839496841F470615F
:100720003A4A083A516070E038493C31884208D171
:1007300036490839496841F47041344A083A5160F1
:1007400063E032495031884208D13049083949685C
:1007500041F470212D4A083A516056E02B4964312A
:10076000884208D129490839496841F47001274A6B
:10077000083A516049E025497831884208D1234937
:100780000839496841F07061204A083A51603CE0FC
:100790001F49884206D1011F096841F00F01021F5D
:1007A000116032E01A491431884208D11849091FF2
:1007B000096841F0F001164A121F116025E0144942
:1007C0002831884208D11249091F096841F4706133
:1007D0000F4A121F116018E00D493C31884208D1C0
:1007E0000B49091F096841F47041094A121F116041
:1007F0000BE007495031884207D10549091F0968B4
:1008000041F47021024A121F116070470800024033
:100810000804024010B50022026847F6F0739A43BC
:100820000C6A8B6823430C6923434C6923438C690E
:100830002343CC6923434C6A23438C6A23431A43E2
:100840000260CB6843600B6883604B68C36010BD77
:100850007047000010B54FF4805000F05FF8012899
:100860000FD1052001F05AF94FF48051264800F0CD
:10087000A2F910B90120254908704FF4805000F00A
:1008800047F84FF4005000F049F801280FD1052037
:1008900001F044F94FF400511B4800F08CF910B9F5
:1008A00002201A4908704FF4005000F031F84FF45C
:1008B000804000F033F801280FD1052001F02EF917
:1008C0004FF48041104800F076F910B903200F4929
:1008D00008704FF4804000F01BF84FF4004000F027
:1008E0001DF801280FD1052001F018F94FF400413F
:1008F000054800F060F910B90420044908704FF46D
:10090000004000F005F810BD000C01401900002067
:1009100001490860704700001404014001460020AE
:100920000022074B1B6803EA0102054B14331B68C6
:100930000B4013B10AB1012000E000207047000015
:1009400000040140002123498279002A3AD00A4656
:10095000126803689A430B461A600A1D12680368FE
:100960009A430B1D1A60027911440A6803681A43FE
:100970000A60184A0832126803689A43154B083314
:100980001A601A1D126803689A43124B0C331A60DE
:100990004279102A0ED11A1F126803681A430D4BB0
:1009A00008331A601A1D126803681A43094B0C3386
:1009B0001A600DE00749427911440A6803681A4336
:1009C0000A6005E0027911440A6803689A430A60E4
:1009D00070470000000401401FB50121082000F00D
:1009E00037FC0121084600F033FC48208DF80F0049
:1009F0004FF47040ADF80C0003A9184800F050F80F
:100A00000C21012000F02CF80D21012000F028F825
:100A10000E21012000F024F80F21012000F020F821
:100A20004FF47040019001208DF80A0000208DF8ED
:100A300008000C208DF8090001A8FFF783FF28208B
:100A40008DF8000001208DF8030000208DF80100D2
:100A50008DF80200684600F039F91FBD000C014016
:100A600030B500228B071C0F0F2303FA04F20B4B47
:100A70008C1053F824309343084C8D1044F82530E3
:100A800023468C1053F824308C07240F00FA04F40A
:100A90002343024C8D1044F8253030BD080001403E
:100AA0002DE9F04102460025002600200023002405
:100AB000002791F803C00CF00F0591F803C00CF06B
:100AC000100CBCF1000F03D091F802C04CEA0505F0
:100AD00091F800C0BCF1000F31D0146800202BE069
:100AE0004FF0010C0CFA00F3B1F800C00CEA030659
:100AF0009E4220D183004FF00F0C0CFA03F7BC4349
:100B000005FA03FC4CEA040491F803C0BCF1280F79
:100B100006D14FF0010C0CFA00FCC2F814C00AE038
:100B200091F803C0BCF1480F05D14FF0010C0CFA4D
:100B300000FCC2F810C0401C0828D1D31460B1F8E2
:100B400000C0BCF1FF0F34DD546800202EE000F13E
:100B5000080C4FF0010808FA0CF3B1F800C00CEAD9
:100B600003069E4221D183004FF00F0C0CFA03F7CD
:100B7000BC4305FA03FC4CEA040491F803C0BCF141
:100B8000280F05D100F1080C08FA0CF8C2F81480FF
:100B900091F803C0BCF1480F07D100F1080C4FF0E9
:100BA000010808FA0CF8C2F81080401C0828CED3BF
:100BB0005460BDE8F0810246002093680B400BB101
:100BC000012000E0002070474161704701617047DB
:100BD00000BFFEE708B50121082000F039FBC02066
:100BE000ADF8000003208DF8020010208DF80300FE
:100BF00069460548FFF754FF01200449086004498D
:100C0000C1F89C0108BD0000000C01409881214200
:100C10000080214270B506460D4600F01BF9782091
:100C200000F0E8F800F0C4F80446012C00D170BDD3
:100C3000304600F0DFF800F0BBF80446012C00D18C
:100C4000F5E7284600F0D6F800F0B2F80446012C8B
:100C500000D1ECE700F01CF900BFE8E708B501217E
:100C6000082000F0F5FA4FF47040ADF8000048207D
:100C70008DF8030069460248FFF712FF08BD000027
:100C8000000C014008B50121082000F0E1FA4FF402
:100C90004060ADF8000001208DF8020010208DF8B2
:100CA000030069460648FFF7FBFE4FF480610448E5
:100CB000FFF78CFF4FF400610148FFF787FF08BD85
:100CC000000C014000BFFEE77047000070B5002136
:100CD00000230F22C47804B3154C246804F4E064A4
:100CE000C4F5E064210AC1F10403CA40447804FA5F
:100CF00003F184781440214309010E4C0678A15574
:100D0000047804F01F050124AC4005786D11AD0096
:100D100005F1E025C5F8004109E0047804F01F055D
:100D20000124AC40044D0678761145F8264070BD8C
:100D30000CED00E000E400E080E100E00249014346
:100D4000024A1160704700000000FA050CED00E057
:100D500070B50646002415E004F1B001C8B200F0F9
:100D6000B1FE002000F0AEFE102000F0ABFE00252A
:100D700004E0304600F0ADFE681CC5B2802DF8DB03
:100D8000601CC4B2082CE7DB70BD000038B5044617
:100D90008020ADF800008DF8034003208DF802009C
:100DA00069460248FFF77CFE38BD0000000C014098
:100DB00010B54820FFF7EAFF00200C490860052025
:100DC00000F0E4FE01200A49C1F8980107487C3888
:100DD0000068012801D1012400E00024052000F072
:100DE000D5FE002001490860204610BD98812142AF
:100DF0000080214270B505461020FFF7C7FF002094
:100E00001249086000241DE0C4F107010120884058
:100E1000284020B101200D49091D086003E0002091
:100E20000A49091D0860052000F0B0FE01200749AD
:100E30000860052000F0AAFE00200549C1F89801CD
:100E4000601CC4B2082CDFDB70BD00009881214219
:100E50000080214210B51020FFF798FF01200A49B9
:100E600008600A49C1F89C01052000F08FFE0020AF
:100E70000549091D0860052000F088FE002003498F
:100E8000C1F8980110BD00009881214200802142E4
:100E900010B51020FFF77AFF0020094908600949C2
:100EA000C1F89C01052000F071FE01200449086092
:100EB000052000F06BFE01200249C1F89C0110BD25
:100EC000988121420080214210B5642000F026FE66
:100ED000AE2000F0F7FD202000F0F4FD102000F01F
:100EE000F1FDB02000F0EEFDC82000F0EBFD002089
:100EF00000F0E8FD102000F0E5FD402000F0E2FDEC
:100F0000812000F0DFFDFF2000F0DCFDA12000F0DB
:100F1000D9FDA62000F0D6FDA82000F0D3FD3F208B
:100F200000F0D0FDA42000F0CDFDD32000F0CAFDDC
:100F3000002000F0C7FDD52000F0C4FDF02000F037
:100F4000C1FDD92000F0BEFD222000F0BBFDDA205B
:100F500000F0B8FD122000F0B5FDDB2000F0B2FD7E
:100F6000202000F0AFFD8D2000F0ACFD142000F03B
:100F7000A9FDAF2000F0A6FD10BD10B58D2000F03A
:100F8000A1FD142000F09EFDAF2000F09BFD10BDE0
:100F900070B504460D4605F1B001C8B200F092FDEF
:100FA000102141EA141000F08DFD04F00F0141F012
:100FB000010000F087FD70BD2DE9F04180460E462E
:100FC000174600247D0131464046FFF7E1FF00BF90
:100FD00006E00D49485D00F07CFD6D1C601CC4B24C
:100FE000102CF6DB701CC1B24046FFF7D1FF002485
:100FF00006E00549485D00F06CFD6D1C601CC4B244
:10100000102CF6DBBDE8F081340000202DE9F04122
:1010100080460E46174600247D0131464046FFF7C4
:10102000B7FF00BF06E00D49485D00F052FD6D1CA2
:10103000601CC4B2102CF6DB701CC1B24046FFF736
:10104000A7FF002406E00549485D00F042FD6D1C45
:10105000601CC4B2102CF6DBBDE8F081B4000020A7
:101060002DE9F04180460E46174600247D013146A9
:101070004046FFF78DFF00BF06E00D49485D00F0D8
:1010800028FD6D1C601CC4B2102CF6DB701CC1B2B4
:101090004046FFF77DFF002406E00549485D00F06B
:1010A00018FD6D1C601CC4B2102CF6DBBDE8F0818D
:1010B000340100202DE9F04180460E4617460024F9
:1010C0007D0131464046FFF763FF00BF06E00D4952
:1010D000485D00F0FEFC6D1C601CC4B2102CF6DBF9
:1010E000701CC1B24046FFF753FF002406E00549DB
:1010F000485D00F0EEFC6D1C601CC4B2102CF6DBE9
:10110000BDE8F081B40100202DE9F047064689468C
:1011100017469A464FF0000800240025BAF1010F47
:1011200003D0BAF1020F5ED125E020E0785D2038CF
:1011300000F0FF087E2E04DD002609F1010000F01A
:10114000FF0949463046FFF723FF002409E008EB7A
:101150004801264A02EB4101085D00F0BAFC601C20
:10116000C4B2062CF3DBB01DC6B2681CC5B2785DF4
:101170000028DBD137E032E0785D203800F0FF084E
:10118000782E04DD002609F1010000F0FF09494630
:101190003046FFF7FDFE002407E004EB0811144A77
:1011A000505C00F096FC601CC4B2082CF5DB09F121
:1011B0000100C1B23046FFF7EBFE002408E004EB6B
:1011C000081108310A4A505C00F083FC601CC4B26C
:1011D000082CF4DB06F10800C6B2681CC5B2785DC5
:1011E0000028C9D100BF00BFBDE8F0871422000865
:1011F0003C2400087047000001460020034A506864
:1012000020F4404008435060704700000010024046
:1012100029B1064A52690243044B5A6104E0034A69
:1012200052698243014B5A6170470000001002402E
:1012300029B1064AD2690243044BDA6104E0034A49
:10124000D2698243014BDA6170470000001002400E
:1012500029B1064A92690243044B9A6104E0034AA9
:1012600092698243014B9A6170470000001002406E
:1012700030B500210022002400232D4D6D6805F0BB
:101280000C0121B1042905D0082923D105E0294DFD
:10129000056022E0274D05601FE0254D6D6805F4CF
:1012A0007012234D6D6805F48034022505EB9242DF
:1012B0001CB9214D554305600BE01D4D6D6805F4CB
:1012C00000351DB11C4D5543056002E0194D5543D5
:1012D000056002E0174D056000BF00BF144D6D684A
:1012E00005F0F0010909154D6B5C0568DD404560AE
:1012F0000F4D6D6805F4E061090A104D6B5C45689F
:10130000DD4085600A4D6D6805F46051C90A0B4DDA
:101310006B5C4568DD40C560054D6D6805F4404176
:10132000890B074D6B5CC568B5FBF3F5056130BDF6
:101330000010024000127A0000093D000000002069
:1013400010000020704700003EB505460C46002006
:1013500000900190029012208DF800004C208DF832
:10136000010008208DF8020007208DF803008DF899
:101370000450E0B28DF80500200A8DF80600F42034
:101380008DF8070001208DF8080000208DF8090075
:101390008DF80A009DF800009DF8011008449DF8A2
:1013A000021008449DF8031008449DF804100844F6
:1013B0009DF8051008449DF8061008449DF8071094
:1013C00008449DF8081008449DF8091008449DF849
:1013D0000A100844C0B28DF80B000C22694602487E
:1013E00000F03BFB3EBD0000004400401CB504463D
:1013F00000200090019012208DF800004C208DF804
:10140000010001208DF802008DF803008DF80440E2
:101410009DF800009DF8011008449DF80210084452
:101420009DF8031008449DF804100844C0B28DF8DC
:10143000050006226946024800F00FFB1CBD0000B3
:101440000044004010B500F001F810BD0CB50020BC
:10145000019000903348006840F4803031490860C2
:1014600000BF3048006800F4003000900198401C34
:101470000190009818B90198B0F5A06FF1D12948F2
:10148000006800F4003010B10120009001E000205D
:1014900000900098012843D12348006840F01000D4
:1014A000214908600846006820F0030008600846EB
:1014B000006840F0020008601A4840681949486016
:1014C0000846406848600846406840F480604860CC
:1014D0000846406820F47C1048600846406840F4A4
:1014E000E81048600846006840F08070086000BF5F
:1014F0000C48006800F000700028F9D009484068E6
:1015000020F00300074948600846406840F00200A8
:10151000486000BF0348406800F00C000828F9D17B
:101520000CBD00000010024000200240042808D139
:101530004FF0E021096941F004014FF0E022116110
:1015400007E04FF0E021096921F004014FF0E022AB
:10155000116170477047000010B51348006840F0F3
:1015600001001149086008464068104908400E49CA
:101570004860084600680E4908400B490860084664
:10158000006820F4802008600846406820F4FE00CF
:1015900048604FF41F008860FFF754FF4FF0006071
:1015A0000449086010BD0000001002400000FFF870
:1015B000FFFFF6FE08ED00E010B50121880700F0FE
:1015C00040F80121880700F039F810BD10B501215D
:1015D000164800F036F8012822D115480078401C42
:1015E0001349087008460078052819D11148007879
:1015F000401C10490870087800EBD0714910A0EB2E
:10160000410129B14FF400610B48FFF7DDFA04E016
:101610004FF400610848FFF7D9FA00200449087028
:101620000121024800F00AF810BD0000000400404B
:101630002100002020000020000C0140CA4302824B
:10164000704730B50246002000230024158A05EAC1
:101650000103958905EA010413B10CB1012000E0F2
:10166000002030BD10B586B0044601210420FFF7EC
:10167000EFFD01218803FFF7EBFD4FF40070ADF89B
:10168000000003208DF8020018208DF80300694641
:101690001C48FFF705FA4FF48060ADF80000042005
:1016A0008DF8030069461748FFF7FAF90294002005
:1016B000ADF80C00ADF80E00ADF81000ADF8140058
:1016C0000C20ADF8120002A90F4800F04FF92520B8
:1016D0008DF8040000208DF805008DF8060001202B
:1016E0008DF8070001A8FFF7F1FA012240F2255119
:1016F000054800F016F90121034800F0CFF806B0C4
:1017000010BD0000000801400038014010B540F253
:101710002551134800F0DBF801281AD1104800F0D9
:1017200091F910490870084601780F48026800686E
:10173000401C0D4B18600D4881541846006836282F
:1017400002D100201946086006480178044800F0DC
:101750007EF940F22551024800F091F810BD0000DA
:10176000003801402400002028000020400600200E
:1017700010B586B0044601210420FFF769FD012160
:101780004804FFF755FD0420ADF8000003208DF854
:10179000020018208DF8030069461C48FFF780F905
:1017A0000820ADF8000004208DF8030069461748B2
:1017B000FFF776F902940020ADF80C00ADF80E00AA
:1017C000ADF81000ADF814000C20ADF8120002A91D
:1017D0000F4800F0CBF826208DF8040000208DF88B
:1017E00005008DF8060001208DF8070001A8FFF71D
:1017F0006DFA012240F22551054800F092F80121CE
:10180000034800F04BF806B010BD0000000801408E
:101810000044004010B540F22551104800F057F840
:10182000012815D10D4800F00DF90D490870084642
:1018300001780C4802680068401C0A4B18600A488E
:10184000815418460068362802D1002019460860E5
:1018500040F22551014800F012F810BD004400404C
:101860002C000020300000207606002001F40072D9
:10187000B2F5007F00D100BFCA430280704710B5A7
:101880000022002340F66A14A14200D100BF0A12D0
:1018900001249440A3B2DC43048010BD21B18289AD
:1018A00042F40052828104E082894DF6FF731A40AF
:1018B0008281704702460020B1F5007F00D100BF51
:1018C00013880B400BB1012000E00020704770B579
:1018D0000246002400230025002040F66A16B1428B
:1018E00000D100BFC1F3421501F01F03012606FA23
:1018F00003F3012D02D19689334006E0022D02D177
:10190000168A334001E0968A33400C12012606FA0B
:1019100004F41688344013B10CB1012000E000201B
:1019200070BDF0B50346002400260025002040F6D7
:101930006A17B94200D100BF1846C1F3421401F042
:101940001F06012707FA06F5012C01D10C3004E02F
:10195000022C01D1103000E014301AB107682F4377
:10196000076002E00768AF430760F0BD2DE9F0476C
:1019700086B005460E460024A24600BFA1460027B9
:10198000B08900B100BF2F462C8A4CF6FF7004408E
:10199000F08804432C82AC894EF6F3100440B088E2
:1019A00031890843718908430443AC81AC8A4FF6FE
:1019B000FF400440B0890443AC8201A8FFF758FC03
:1019C0001F48874202D1DDF810A001E0DDF80CA02D
:1019D000A88900F4004040B10AEBCA0000EB0A10ED
:1019E00031684900B0FBF1F807E00AEBCA0000EBF0
:1019F0000A1031688900B0FBF1F86420B8FBF0F000
:101A000004012009642101FB1089A88900F4004029
:101A100040B1322000EBC900B0FBF1F000F007004C
:101A2000044308E0322000EB09106421B0FBF1F020
:101A300000F00F0004432C8106B0BDE8F0870000E1
:101A40000038014001468888C0F308007047C1F3A0
:101A500008028280704700BFFEE72DE9F04107468B
:101A60000C46154626460FE031783846FFF7EFFF63
:101A7000761C00BF80213846FFF71CFF0028F9D0F4
:101A800080213846FFF7F2FE281EA5F10105EBD1B3
:101A9000BDE8F0810020014908607047082C004033
:101AA00010B50348007800F005F8FFF7F3FF10BD0C
:101AB0003406002000F07F01014A116070470000E9
:101AC000002C004010B5044621460020FFF7A2F884
:101AD00010BD10B5044621464020FFF79BF810BD0D
:101AE00010B504466FF00400FFF720FDE11704EB8A
:101AF0005171C1F3C701074A11701046007800EB1D
:101B00004001C1EBC0104FF6FF7101EAC00002496D
:101B1000088010BD14000020160000200146114A64
:101B200012884A434FF0E0235A6100229A611A4614
:101B3000126942F001021A6100BF4FF0E022106901
:101B400000F001021AB100F48032002AF5D04FF003
:101B5000E022126922F001024FF0E0231A61002214
:101B60009A6170471600002030B50446002500BF7A
:101B700008E04FF4FA70FFF7D1FF4FF4FA70FFF767
:101B8000CDFF6D1CA542F4DB30BD00000146114ABB
:101B900012784A434FF0E0235A6100229A611A46B4
:101BA000126942F001021A6100BF4FF0E022106991
:101BB00000F001021AB100F48032002AF5D04FF093
:101BC000E022126922F001024FF0E0231A610022A4
:101BD0009A6170471400002030B510F5966F04DA52
:101BE0004FF650341A4D2C8006E0B0F5966F03DDA9
:101BF0004FF49664164D2C80164CA14204DA4FF631
:101C00004A44134D6C8006E0B1F5167F03DD4FF4B6
:101C100016740F4D6C8012F5C86F04DA4FF6C014BD
:101C20000B4DAC8005E040F2EE24A24201DD084DF0
:101C3000AC8013F1C80F04DA6FF0C704044DEC80D8
:101C400004E0C82B02DDC824014DEC8030BD00004B
:101C5000360600204AFCFFFF00244FF4A060FFF787
:101C60006DF84820FFF73CFFFFF70CF8FEF7F6FF92
:101C7000FEF7B2FE4FF4E130FFF7F4FC4FF4E13031
:101C8000FFF776FDFEF70BFDFEF7A4FFFFF71CF94B
:101C9000FFF773F9FF20FFF75BF80120FFF764FF00
:101CA0000020FFF755F80120FFF75EFF00BF1AE0A4
:101CB0004FF48061FE48FEF787FF4FF40061FC4857
:101CC000FEF782FF3220FFF729FF4FF48061F848CA
:101CD000FEF77CFF4FF40061F548FEF777FF3220F6
:101CE000FFF71CFF641C022CE2DB012406E0E0B2DB
:101CF000FFF77CFB6420FFF711FF641C052CF6DB6B
:101D000000210120FFF720FB4FF4FA70FFF706FFD8
:101D10006FF095010220FFF717FB4FF4FA70FFF701
:101D2000FDFE4FF4C8710320FFF70EFB4FF4FA706D
:101D3000FFF7F4FE00210420FFF706FB4FF4FA70D2
:101D4000FFF7ECFE00241CE0E2B221012831C8B20A
:101D50000021FFF731F9E2B221012831C8B2022196
:101D6000FFF754F9E2B221012831C8B20421FFF78C
:101D700077F9E2B221012831C8B20621FFF79AF9BA
:101D8000641C042CE0DB0223CAA200211620FFF70A
:101D9000BBF90223C8A219461620FFF7B5F90223A2
:101DA000C6A204211620FFF7AFF90223C4A2062120
:101DB0001620FFF7A9F94FF4FA70FFF7AFFE26E2FD
:101DC000C0480078012806D0022861D0032875D0C9
:101DD000042874D1B3E10020FEF7BAFF002407E025
:101DE000E2B221012831C8B20021FFF7E5F8641CF6
:101DF000042CF5DB0223AFA200211620FFF784F9A3
:101E0000B1490220FFF7A0FA4FF4FA70FFF786FEFF
:101E10006FF063010420FFF797FA4FF4FA70FFF7B1
:101E20007DFE6FF095010220FFF78EFA4FF4FA70F5
:101E3000FFF774FE4FF461710120FFF785FA4FF44C
:101E4000FA70FFF76BFEA0490220FFF77DFA4FF40E
:101E5000FA70FFF763FE00210420FFF775FA4FF4D4
:101E6000FA70FFF75BFE6FF095010220FFF76CFA46
:101E70004FF4FA70FFF752FE00210120FFF764FAD9
:101E80004FF4FA70FFF74AFE00208E490870BDE15A
:101E90000020FEF75DFF022387A219461620FFF7F8
:101EA00033F9002407E0E2B221012831C8B202214F
:101EB000FFF7ACF8641C042CF5DB42E044E0A4E13D
:101EC000824800884FF41661484340F6FF7190FB4A
:101ED000F1F0A0F5966529460120FFF735FA7B4819
:101EE000408840F20E61484340F6FF7190FBF1F0EC
:101EF000A0F2B63529460220FFF726FA73488088FB
:101F000040F62E11484340F6FF7190FBF1F0A0F52A
:101F1000C86529460320FFF717FA6C48C0884FF4BC
:101F2000C871484340F6FF7190FBF1F0A0F1C8057D
:101F300029460420FFF708FA62480078042800D1F7
:101F400000E0BDE700BF61E10020FEF701FF0223D2
:101F50005AA204211620FFF7D7F8002407E0E2B2C6
:101F600021012831C8B20421FFF77AF8641C042C3F
:101F7000F5DBE1E056480068401E5649085C23281E
:101F800076D153480068421E53A15248FEF73CF9EF
:101F900030B953480088323800B25149088067E0B0
:101FA0004B480068421E4FA14A48FEF72DF930B950
:101FB0004B480088323000B24949088058E0444814
:101FC0000068421E49A14348FEF71EF930B9444853
:101FD0004088323800B24249488049E03C480068B5
:101FE000421E44A13B48FEF70FF930B93C484088F7
:101FF000323000B23A4948803AE035480068421E23
:102000003EA13448FEF700F930B9354880883238AF
:1020100000B2334988802BE02D480068421E38A169
:102020002C48FEF7F1F830B92D488088323000B2E4
:102030002B4988801CE026480068421E32A12548B2
:10204000FEF7E2F830B92648C088323000B22449A1
:10205000C8800DE01E480068421E2DA11D48FEF7F5
:10206000D3F828B91E48C088323800B21C49C8804D
:1020700036211848FEF713F9002015490860184D5D
:10208000B5F90630B5F90420B5F90210B5F900002C
:10209000FFF7A2FD2846B0F900100120FFF754F920
:1020A0002846B0F902100220FFF74EF9284633E027
:1020B000000C0140303100003032000030330000AD
:1020C0003034000019000020DAFDFFFFAC060020CC
:1020D00028000020400600206C65667400000000A7
:1020E00036060020726967687400000066726F6EC1
:1020F000740000006261636B0000000075700000F6
:10210000646F776D000000006C6F6F7365000000F6
:10211000636C6F7365000000B0F904100320FFF7D3
:1021200013F92846B0F906100420FFF70DF93848D6
:102130000078042800D100E01CE700BF66E0002022
:10214000FEF706FE00241CE0E2B221012831C8B2ED
:102150000021FEF731FFE2B221012831C8B202218D
:10216000FEF754FFE2B221012831C8B20421FEF784
:1021700077FFE2B221012831C8B20621FEF79AFFAB
:10218000641C042CE0DB0223AFF2D80200211620ED
:10219000FEF7BAFF0223AFF2E00219461620FEF75F
:1021A000B3FF0223AFF2EC0204211620FEF7ACFFCE
:1021B0000223AFF2F40206211620FEF7A5FF00214C
:1021C0000120FFF7C1F84FF4FA70FFF7A7FC6FF09A
:1021D00095010220FFF7B8F84FF4FA70FFF79EFC64
:1021E0004FF4C8710320FFF7AFF84FF4FA70FFF710
:1021F00095FC00210420FFF7A7F84FF47A70FFF751
:102200008DFC00200249087000E000BF00BFD7E548
:10221000190000200000000000000000002F000056
:1022200000000700070000147F147F1400242A7F99
:102230002A12006264081323003649552250000018
:102240000503000000001C224100000041221C0088
:102250000014083E08140008083E0808000000A00A
:102260006000000808080808000060600000002006
:1022700010080402003E5149453E0000427F4000E4
:10228000004261514946002141454B31001814126A
:102290007F10002745454539003C4A494930000137
:1022A0007109050300364949493600064949291E86
:1022B00000003636000000005636000000081422E8
:1022C00041000014141414140000412214080002E8
:1022D0000151090600324959513E007C1211127C0D
:1022E000007F49494936003E41414122007F41413A
:1022F000221C007F49494941007F09090901003E2C
:102300004149497A007F0808087F0000417F410069
:10231000002040413F01007F08142241007F4040DF
:102320004040007F020C027F007F0408107F003EC7
:102330004141413E007F09090906003E4151215EAD
:10234000007F091929460046494949310001017FAA
:102350000101003F4040403F001F2040201F003F40
:102360004038403F006314081463000708700807F2
:1023700000615149454300007F41410000552A5505
:102380002A55000041417F00000402010204004080
:1023900040404040000001020400002054545478A2
:1023A000007F4844443800384444442000384444C2
:1023B000487F00385454541800087E090102001860
:1023C000A4A4A47C007F080404780000447D40009D
:1023D000004080847D00007F102844000000417F81
:1023E0004000007C04180478007C0804047800385D
:1023F0004444443800FC242424180018242418FCE5
:10240000007C0804040800485454542000043F444D
:102410004020003C4040207C001C2040201C003C10
:102420004030403C004428102844001CA0A0A07C60
:10243000004464544C441414141414140000000098
:10244000000000000000000000000000000000F894
:1024500000000000000000333000000000100C06F7
:10246000100C0600000000000000000040C0784092
:10247000C0784000043F04043F040400007088FC5E
:1024800008300000001820FF211E0000F008F000B6
:10249000E018000000211C031E211E0000F0088827
:1024A000700000001E2123241927211010160E0091
:1024B000000000000000000000000000000000E03C
:1024C0001804020000000007182040000002041851
:1024D000E00000000040201807000000404080F0AD
:1024E000804040000202010F01020200000000F0E3
:1024F000000000000101011F0101010000000000B7
:102500000000000080B0700000000000000000002B
:1025100000000000000101010101010100000000B4
:10252000000000000030300000000000000000004B
:1025300080601804006018060100000000E0100828
:102540000810E000000F102020100F00001010F8FD
:10255000000000000020203F20200000007008083C
:1025600008887000003028242221300000300888BC
:10257000884830000018202020110E000000C020E4
:1025800010F8000000070424243F240000F8088805
:10259000880808000019212020110E0000E0108892
:1025A00088180000000F112020110E0000380808C4
:1025B000C83808000000003F0000000000708808D4
:1025C00008887000001C222121221C0000E0100855
:1025D0000810E0000000312222110F00000000C0AE
:1025E000C00000000000003030000000000000804B
:1025F000000000000000806000000000000080403B
:102600002010080000010204081020004040404053
:1026100040404000040404040404040000081020A6
:1026200040800000002010080402010000704808EB
:102630000808F0000000003036010000C030C82853
:10264000E810E0000718272423140B000000C0380E
:10265000E0000000203C23020227382008F8888888
:1026600088700000203F202020110E00C030080894
:1026700008083800071820202010080008F808086B
:102680000810E000203F202020100F0008F8888864
:10269000E8081000203F20202320180008F8888830
:1026A000E8081000203F200003000000C0300808A8
:1026B0000838000007182020221E020008F8080031
:1026C0000008F808203F210101213F20000808F8F8
:1026D000080800000020203F20200000000008081B
:1026E000F8080800C08080807F00000008F888C0DB
:1026F00028180800203F20012638200008F808008C
:1027000000000000203F20202020300008F8F800C2
:10271000F8F80800203F003F003F200008F830C0D4
:102720000008F808203F200007183F00E0100808C4
:102730000810E0000F10202020100F0008F80808F3
:102740000808F000203F210101010000E010080806
:102750000810E0000F18242438504F0008F888882B
:1027600088887000203F2000030C3020007088080B
:10277000080838000038202121221C00180808F819
:10278000080818000000203F2000000008F808009A
:102790000008F808001F202020201F00087888006B
:1027A00000C83808000007380E010000F80800F8DB
:1027B0000008F800033C0700073C03000818688085
:1027C0008068180820302C03032C30200838C800FB
:1027D000C83808000000203F20000000100808084A
:1027E000C83808002038262120201800000000FEEC
:1027F000020202000000007F40404000000C30C098
:1028000000000000000000010638C00000020202C3
:10281000FE000000004040407F0000000000040275
:1028200002020400000000000000000000000000A0
:102830000000000080808080808080800002020490
:102840000000000000000000000000000000808088
:10285000808000000019242222223F2008F80080F6
:1028600080000000003F112020110E0000000080B9
:1028700080800000000E1120202011000000008048
:102880008088F800000E112020103F20000080807A
:1028900080800000001F222222221300008080F08E
:1028A000888888180020203F2020000000008080B9
:1028B00080808000006B94949493600008F80080FE
:1028C00080800000203F210000203F200080989859
:1028D000000000000020203F2020000000000080B9
:1028E0009898000000C08080807F000008F80000F9
:1028F00080808000203F24022D302000000808F84E
:10290000000000000020203F202000008080808008
:1029100080808000203F20003F20003F808000809A
:1029200080800000203F210000203F2000008080A8
:1029300080800000001F202020201F008080008059
:102940008000000080FFA12020110E000000008008
:1029500080808000000E112020A0FF8080808000F9
:102960008080800020203F21200001000000808026
:10297000808080000033242424241900008080E01B
:10298000808000000000001F2020000080800000E8
:1029900000808000001F202020103F2080808000C9
:1029A0000080808000010E300806010080800080D9
:1029B000008080800F300C030C300F0000808000FE
:1029C000808080000020312E0E3120008080800029
:1029D0000080808080818E701806010000808080D9
:1029E000808080000021302C222130000000000077
:1029F000807C020200000000003F40400000000018
:102A0000FF00000000000000FF0000000002027C48
:102A1000800000000040403F00000000000601016F
:102A20000202040400000000000000004C2A00081C
:102A3000000000204006000028010008A02C00082B
:102A400040060020D806000084010008412D010244
:102A50000304040009230607080902040608700A93
:102A6000F8888C8A89888888F84BFF440142FF1CCB
:102A70004044C40B2009401010FF101010F0180F34
:102A8000103C131014B840300E014080403F10201D
:102A90000E10D0FF9014E4AFA4A4A4AFE404130478
:102AA0000312FF180B894B2A1A0E1A2A4B88802012
:102AB0002A90013940241116101D2060203F4B112F
:102AC0002E030C102040731AF87B2B88FF054981D8
:102AD0001B1F08012A7F101B9F807116FE0222DA3D
:102AE000061BFE22013AFE9E180808100847407F88
:102AF0004201147F40401C4042CC2438088292920C
:102B0000FE92928221153F10887F18081E12121221
:102B10005E807F9019BE3A5FC419061A04A149E38A
:102B20002119473207180C0404E4040FF40404F4D8
:102B300044CF241204180E40407D44447D44454453
:102B40007C44457C60212CC2B282012AFE051A8099
:102B5000C02F2010080402415C41093E803A4041E8
:102B60002809FC24A4242222A36211280D201F205E
:102B7000584750484542454850801DFE0202F24EDB
:102B80003CF202025F11280B7F20202724242427F7
:102B900020208349401808FF4949C949497F9F3986
:102BA00040280A405F484440414245584019C62CDD
:102BB0004040FF0542FC390F3B407F06391101328E
:102BC000380B80C0E0F0F8F8FC7C7C3E0128097CE2
:102BD0007CFCF8F8F0E0C07E0163C009F8FEFFFF5E
:102BE000FF0F03011C01030F150360FEF81AC0FA62
:102BF0001AF36A196B19F13BC08001291539950345
:102C00005ADF832B80C06418137F3F0F0703010135
:102C100001030307070F1F1F3F7F7F12280C0F07B9
:102C20000703030103070F3F7F9849012AE0012AA8
:102C3000C00119A2013B2E1C3E3EFEFEDD3D7F3F42
:102C40003F1F010F103FFEFEFCFCF0A1180AE0F050
:102C5000F8FCFE7F3F1F0FA029A219011A07011AD5
:102C60000F01023C07197C180DFFFFE1E0E0F0F0D6
:102C7000F8F8FC7C7E8719518A01787AC07903556F
:102C8000070329C31C070303D5E18979DA031A0175
:102C9000661B0103950140327F3C6AFF90480000AB
:04000005080000ED02
:00000001FF
